{
  "_format": "hh-sol-artifact-1",
  "contractName": "MyDEX",
  "sourceName": "contracts/MyDEX.sol",
  "abi": [
    {
      "inputs": [
        {
          "internalType": "address",
          "name": "_token1",
          "type": "address"
        },
        {
          "internalType": "address",
          "name": "_token2",
          "type": "address"
        }
      ],
      "stateMutability": "nonpayable",
      "type": "constructor"
    },
    {
      "inputs": [
        {
          "internalType": "uint256",
          "name": "amount1",
          "type": "uint256"
        },
        {
          "internalType": "uint256",
          "name": "amount2",
          "type": "uint256"
        }
      ],
      "name": "addLiquidity",
      "outputs": [],
      "stateMutability": "nonpayable",
      "type": "function"
    },
    {
      "inputs": [
        {
          "internalType": "uint256",
          "name": "amountIn",
          "type": "uint256"
        },
        {
          "internalType": "uint256",
          "name": "reserveIn",
          "type": "uint256"
        },
        {
          "internalType": "uint256",
          "name": "reserveOut",
          "type": "uint256"
        }
      ],
      "name": "getAmountOut",
      "outputs": [
        {
          "internalType": "uint256",
          "name": "",
          "type": "uint256"
        }
      ],
      "stateMutability": "pure",
      "type": "function"
    },
    {
      "inputs": [],
      "name": "reserve1",
      "outputs": [
        {
          "internalType": "uint256",
          "name": "",
          "type": "uint256"
        }
      ],
      "stateMutability": "view",
      "type": "function"
    },
    {
      "inputs": [],
      "name": "reserve2",
      "outputs": [
        {
          "internalType": "uint256",
          "name": "",
          "type": "uint256"
        }
      ],
      "stateMutability": "view",
      "type": "function"
    },
    {
      "inputs": [
        {
          "internalType": "address",
          "name": "tokenIn",
          "type": "address"
        },
        {
          "internalType": "uint256",
          "name": "amountIn",
          "type": "uint256"
        },
        {
          "internalType": "address",
          "name": "tokenOut",
          "type": "address"
        },
        {
          "internalType": "uint256",
          "name": "amountOutMin",
          "type": "uint256"
        }
      ],
      "name": "swap",
      "outputs": [],
      "stateMutability": "nonpayable",
      "type": "function"
    },
    {
      "inputs": [],
      "name": "token1",
      "outputs": [
        {
          "internalType": "address",
          "name": "",
          "type": "address"
        }
      ],
      "stateMutability": "view",
      "type": "function"
    },
    {
      "inputs": [],
      "name": "token2",
      "outputs": [
        {
          "internalType": "address",
          "name": "",
          "type": "address"
        }
      ],
      "stateMutability": "view",
      "type": "function"
    }
  ],
  "bytecode": "0x60806040523480156200001157600080fd5b506040516200103f3803806200103f83398181016040528101906200003791906200012a565b816000806101000a81548173ffffffffffffffffffffffffffffffffffffffff021916908373ffffffffffffffffffffffffffffffffffffffff16021790555080600160006101000a81548173ffffffffffffffffffffffffffffffffffffffff021916908373ffffffffffffffffffffffffffffffffffffffff160217905550505062000171565b600080fd5b600073ffffffffffffffffffffffffffffffffffffffff82169050919050565b6000620000f282620000c5565b9050919050565b6200010481620000e5565b81146200011057600080fd5b50565b6000815190506200012481620000f9565b92915050565b60008060408385031215620001445762000143620000c0565b5b6000620001548582860162000113565b9250506020620001678582860162000113565b9150509250929050565b610ebe80620001816000396000f3fe608060405234801561001057600080fd5b506004361061007d5760003560e01c80635c0b9a2b1161005b5780635c0b9a2b146100ee5780638a0ccd561461010c5780639cd441da14610128578063d21220a7146101445761007d565b8063054d50d41461008257806325be124e146100b25780635a76f25e146100d0575b600080fd5b61009c6004803603810190610097919061091d565b610162565b6040516100a9919061097f565b60405180910390f35b6100ba61019f565b6040516100c791906109db565b60405180910390f35b6100d86101c5565b6040516100e5919061097f565b60405180910390f35b6100f66101cb565b604051610103919061097f565b60405180910390f35b61012660048036038101906101219190610a22565b6101d1565b005b610142600480360381019061013d9190610a89565b610744565b005b61014c6108be565b60405161015991906109db565b60405180910390f35b60008082846101719190610af8565b9050848461017f9190610b3a565b8161018a9190610b9d565b836101959190610bce565b9150509392505050565b600160009054906101000a900473ffffffffffffffffffffffffffffffffffffffff1681565b60025481565b60035481565b60008054906101000a900473ffffffffffffffffffffffffffffffffffffffff1673ffffffffffffffffffffffffffffffffffffffff168473ffffffffffffffffffffffffffffffffffffffff1614806102785750600160009054906101000a900473ffffffffffffffffffffffffffffffffffffffff1673ffffffffffffffffffffffffffffffffffffffff168473ffffffffffffffffffffffffffffffffffffffff16145b6102b7576040517f08c379a00000000000000000000000000000000000000000000000000000000081526004016102ae90610c5f565b60405180910390fd5b60008054906101000a900473ffffffffffffffffffffffffffffffffffffffff1673ffffffffffffffffffffffffffffffffffffffff168273ffffffffffffffffffffffffffffffffffffffff16148061035e5750600160009054906101000a900473ffffffffffffffffffffffffffffffffffffffff1673ffffffffffffffffffffffffffffffffffffffff168273ffffffffffffffffffffffffffffffffffffffff16145b61039d576040517f08c379a000000000000000000000000000000000000000000000000000000000815260040161039490610ccb565b60405180910390fd5b8173ffffffffffffffffffffffffffffffffffffffff168473ffffffffffffffffffffffffffffffffffffffff160361040b576040517f08c379a000000000000000000000000000000000000000000000000000000000815260040161040290610d37565b60405180910390fd5b60008060009054906101000a900473ffffffffffffffffffffffffffffffffffffffff1673ffffffffffffffffffffffffffffffffffffffff168573ffffffffffffffffffffffffffffffffffffffff16146104695760035461046d565b6002545b905060008060009054906101000a900473ffffffffffffffffffffffffffffffffffffffff1673ffffffffffffffffffffffffffffffffffffffff168473ffffffffffffffffffffffffffffffffffffffff16146104cd576003546104d1565b6002545b905060006104e0868484610162565b905083811015610525576040517f08c379a000000000000000000000000000000000000000000000000000000000815260040161051c90610da3565b60405180910390fd5b8673ffffffffffffffffffffffffffffffffffffffff166323b872dd3330896040518463ffffffff1660e01b815260040161056293929190610dc3565b6020604051808303816000875af1158015610581573d6000803e3d6000fd5b505050506040513d601f19601f820116820180604052508101906105a59190610e32565b508473ffffffffffffffffffffffffffffffffffffffff1663a9059cbb33836040518363ffffffff1660e01b81526004016105e1929190610e5f565b6020604051808303816000875af1158015610600573d6000803e3d6000fd5b505050506040513d601f19601f820116820180604052508101906106249190610e32565b5060008054906101000a900473ffffffffffffffffffffffffffffffffffffffff1673ffffffffffffffffffffffffffffffffffffffff168773ffffffffffffffffffffffffffffffffffffffff160361069657856002600082825461068a9190610b3a565b925050819055506106b0565b85600360008282546106a89190610b3a565b925050819055505b60008054906101000a900473ffffffffffffffffffffffffffffffffffffffff1673ffffffffffffffffffffffffffffffffffffffff168573ffffffffffffffffffffffffffffffffffffffff16036107215780600260008282546107159190610bce565b9250508190555061073b565b80600360008282546107339190610bce565b925050819055505b50505050505050565b60008054906101000a900473ffffffffffffffffffffffffffffffffffffffff1673ffffffffffffffffffffffffffffffffffffffff166323b872dd3330856040518463ffffffff1660e01b81526004016107a193929190610dc3565b6020604051808303816000875af11580156107c0573d6000803e3d6000fd5b505050506040513d601f19601f820116820180604052508101906107e49190610e32565b50600160009054906101000a900473ffffffffffffffffffffffffffffffffffffffff1673ffffffffffffffffffffffffffffffffffffffff166323b872dd3330846040518463ffffffff1660e01b815260040161084493929190610dc3565b6020604051808303816000875af1158015610863573d6000803e3d6000fd5b505050506040513d601f19601f820116820180604052508101906108879190610e32565b50816002600082825461089a9190610b3a565b9250508190555080600360008282546108b39190610b3a565b925050819055505050565b60008054906101000a900473ffffffffffffffffffffffffffffffffffffffff1681565b600080fd5b6000819050919050565b6108fa816108e7565b811461090557600080fd5b50565b600081359050610917816108f1565b92915050565b600080600060608486031215610936576109356108e2565b5b600061094486828701610908565b935050602061095586828701610908565b925050604061096686828701610908565b9150509250925092565b610979816108e7565b82525050565b60006020820190506109946000830184610970565b92915050565b600073ffffffffffffffffffffffffffffffffffffffff82169050919050565b60006109c58261099a565b9050919050565b6109d5816109ba565b82525050565b60006020820190506109f060008301846109cc565b92915050565b6109ff816109ba565b8114610a0a57600080fd5b50565b600081359050610a1c816109f6565b92915050565b60008060008060808587031215610a3c57610a3b6108e2565b5b6000610a4a87828801610a0d565b9450506020610a5b87828801610908565b9350506040610a6c87828801610a0d565b9250506060610a7d87828801610908565b91505092959194509250565b60008060408385031215610aa057610a9f6108e2565b5b6000610aae85828601610908565b9250506020610abf85828601610908565b9150509250929050565b7f4e487b7100000000000000000000000000000000000000000000000000000000600052601160045260246000fd5b6000610b03826108e7565b9150610b0e836108e7565b9250828202610b1c816108e7565b91508282048414831517610b3357610b32610ac9565b5b5092915050565b6000610b45826108e7565b9150610b50836108e7565b9250828201905080821115610b6857610b67610ac9565b5b92915050565b7f4e487b7100000000000000000000000000000000000000000000000000000000600052601260045260246000fd5b6000610ba8826108e7565b9150610bb3836108e7565b925082610bc357610bc2610b6e565b5b828204905092915050565b6000610bd9826108e7565b9150610be4836108e7565b9250828203905081811115610bfc57610bfb610ac9565b5b92915050565b600082825260208201905092915050565b7f496e76616c696420746f6b656e496e0000000000000000000000000000000000600082015250565b6000610c49600f83610c02565b9150610c5482610c13565b602082019050919050565b60006020820190508181036000830152610c7881610c3c565b9050919050565b7f496e76616c696420746f6b656e4f757400000000000000000000000000000000600082015250565b6000610cb5601083610c02565b9150610cc082610c7f565b602082019050919050565b60006020820190508181036000830152610ce481610ca8565b9050919050565b7f43616e6e6f7420737761702073616d6520746f6b656e00000000000000000000600082015250565b6000610d21601683610c02565b9150610d2c82610ceb565b602082019050919050565b60006020820190508181036000830152610d5081610d14565b9050919050565b7f536c69707061676520746f6f2068696768000000000000000000000000000000600082015250565b6000610d8d601183610c02565b9150610d9882610d57565b602082019050919050565b60006020820190508181036000830152610dbc81610d80565b9050919050565b6000606082019050610dd860008301866109cc565b610de560208301856109cc565b610df26040830184610970565b949350505050565b60008115159050919050565b610e0f81610dfa565b8114610e1a57600080fd5b50565b600081519050610e2c81610e06565b92915050565b600060208284031215610e4857610e476108e2565b5b6000610e5684828501610e1d565b91505092915050565b6000604082019050610e7460008301856109cc565b610e816020830184610970565b939250505056fea264697066735822122034d2fb785db51c35bbf4977500d4498edee803b560861e001072d41be612558564736f6c63430008140033",
  "linkReferences": {},
  "deployedLinkReferences": {}
}